:020000040800F2
:10000000801D00204D010008852000083B1D0008D0
:1000100000000000000000000000000000000000E0
:10002000000000000000000000000000B9240008EB
:1000300000000000000000000B010008C5240008BB
:100040005F0100085F0100085F0100085F01000810
:100050005F0100085F0100085F0100085F01000800
:100060005F0100085F0100085F0100085F010008F0
:100070005F0100085F0100085F0100085F010008E0
:100080005F0100085F010008D5250008000000009E
:100090005F0100085F0100085F0100085F010008C0
:1000A0005F0100085F0100085F0100085F010008B0
:1000B0005F0100085F0100085F0100085F010008A0
:1000C0000348854600F0A8FA004800477D3500083F
:1000D000801D0020084B19680868203080F30988CB
:1000E000022080F31488BFF36F8F3FBCAE4608BC7C
:1000F00004BC62B61847000054000020EFF31080E3
:1001000072B6704780F310887047EFF309800E4B8A
:100110001A6820381060F0C044464D4656465F4687
:10012000F0C008B572B603F063FF62B60CBC11688C
:1001300008681030F0C8A046A946B246BB4680F316
:1001400009882038F0C81847540000200448804728
:1001500004480047FEE7FEE7FEE7FEE7FEE7FEE7AE
:1001600081250008C100000830B50B46014600207B
:100170002022012409E00D46D5409D4205D31D46AD
:100180009540491B2546954040191546521E002DA5
:10019000F1DC30BDF0B51FB40646002082B0054644
:1001A0004024019100901BE0019922460F46304601
:1001B00000F05BF8049A059B801A994110D3104611
:1001C0001946224600F041F8361A8F41019722461F
:1001D00001200021009F00F038F838184D410090B0
:1001E0002046641E0028DFDC019B00982946324629
:1001F00007B0F0BD03460B439B0703D009E008C9D5
:10020000121F08C0042AFAD203E00B780370401CC6
:10021000491C521EF9D27047D2B201E00270401C54
:10022000491EFBD270470022F6E710B513460A4676
:1002300004461946FFF7F0FF204610BD421C017826
:10024000401C0029FBD1801A704710B5202A04DB1E
:100250000146203A9140002010BD914020239C1A75
:100260000346E3401943904010BD10B5202A04DB3B
:100270000846203AD040002110BD0B46D340D04064
:100280002024A21A91400843194610BDF0B5074634
:100290000846584087B0C00F049048000E465900E9
:1002A00040084908BC1A884105D2384631461E46E6
:1002B00017460B4602465800400810434CD0300DFC
:1002C000039040055900400D490D0590401A0290D9
:1002D000402872DA18030121000B09050843019038
:1002E00004980092002805D00199524200208841CC
:1002F00000920190029840210A1A01990098FFF794
:10030000A4FF05460C466B4607CB00F097F9C019D1
:100310007141039A0E0D0023D71756401A467A40B2
:10032000164344D0049A002A2DD0029A012A039A37
:1003300015DC1205C01A914101263605001C7141D9
:10034000D20F059ED2070093019202962A462346B9
:1003500000F094F907B0F0BD38463146FAE71605CB
:10036000224A0F46B218C01AB74101210905001CE4
:100370004F4100187F41114618187941E20F104390
:100380006D19644113E0E2076D0815436408C20764
:100390001443039A01261205C01A91413605001C28
:1003A0007141CE07400830434908C01851412A46E0
:1003B000234600F056F9CDE7FFE7049801224000FC
:1003C000C117121A00238B4104983146C417381AFA
:1003D000A141EEE730B40124E407634030BC55E7A7
:1003E00030B40124E407614030BC4FE70000E0FF77
:1003F000F0B51FB488B00B990998002448400999BA
:10040000C00F490049080991C0070B9900904900A5
:1004100049080B9109990898A64608431CD00B99E6
:100420000A98084318D0099801244000420D48005A
:10043000410D099824050003000B204309900B98F7
:100440000003000B20430B9050181C494018002259
:1004500001901446104605E0002001460DB0F0BDA5
:10046000032801DA034600E003239C46C11A0AAEC2
:100470000AE05F0008ADED5B4F00F75B7D430027AE
:10048000AA187C41491C5B1E6145F2DD410004ABAA
:100490005A522104120C0A43240C401C0828DFDBAA
:1004A000019802900099704601910090059B049A72
:1004B0000799069800F0E2F8D0E700000DFCFFFF76
:1004C000F0B50C465C4085B0E40FE40703944C00A3
:1004D00000266408590094464908024602962243C1
:1004E00021D062460A431ED06200570D4A000E0317
:1004F0002303550D012402462C492405781B1B0BB0
:10050000360B401823432643614600901C46501A80
:10051000B44103D30098401C009002E09218009868
:100520005B41002803DA0020014605B0F0BD002041
:10053000012109050746864611E064461D46141B45
:10054000B54106D36546521BB341744607430C437D
:10055000A646CD0740084908284392185B41054646
:100560000D43EAD11046184313D060461946504057
:100570007140084306D06046101AB34106D20122EA
:10058000002306E000220123DB0702E00122D24320
:100590005310009874460105381C6141029C039D6C
:1005A0000019694100F05DF8BFE70000FD0300009D
:1005B0004A0009030123090B1B0519430A4B10B517
:1005C000520D9A4202DA0020014610BD064B343328
:1005D0009A4203DC9A1AFFF748FE10BD034BD2186B
:1005E000FFF733FE10BD0000FF030000CDFBFFFF4F
:1005F00010B5002904DB0124E40740428C41214668
:10060000002B04DB1C460123DB075242A341994225
:1006100000D1904210BD0000064C0125064E05E0B9
:10062000E36807CC2B430C3C98471034B442F7D313
:10063000FFF74AFDA4720008C472000810B5202A12
:1006400006DBCB170846203A1041C1170B4306E0E2
:100650000B461341D0402024A21A9140084319466A
:1006600010BD10B5002B08DA0024401C614192181F
:100670005B411A4301D14008400010BDF0B51FB4E2
:1006800082B005460C0003D0084602F0EBF902E008
:1006900002F0E8F920300246009021462846FFF794
:1006A000D4FD049B059A04460F46184311430843A2
:1006B00014D0184610431BD0009840210A1A18463F
:1006C0000599FFF7D2FD05460E46009A0599049854
:1006D000FFF7BBFD084305D0012004E02046394662
:1006E00007B0F0BD0020C11705430E432C4337432C
:1006F00000990E986305401A7905E40A00220C431C
:10070000FD0A0A3002D500200146E9E7010510196B
:1007100069410C9C0D9D00196941FFF7A2FFDFE7BD
:10072000002401260E4D0F4F76033146284600F077
:10073000DDF8002810D13146284600F0D7F800280F
:10074000F9D0641CE4B20022D2432146B86902F019
:10075000E5FF642002F07AFF642002F077FFE4E70F
:100760000008005020000020FCB500230124A7E071
:1007700027462A469F403A406FD04D68012D05D04C
:10078000022D03D0112D01D0122D16D1856803261C
:10079000AC465D00AE46AE406546B543AC46CE685D
:1007A0007546AE4065462E43866046680D79BE4369
:1007B000ED06ED0F9D4035434560C6685F0003259B
:1007C000BD40AE46AE4335468E68BE402E43C66041
:1007D0004E68022E01D0122E14D1DE08B600361853
:1007E0000196366A5D07B446EE0E0F25B5400096B9
:1007F0006646AE43B4460D69009EB54066462E433C
:10080000019D2E6206687546AE430D79AD07AD0FAA
:10081000BD40354305604D68ED0050D52B4D6E6BE6
:1008200026436E639E082A4DB6007519AC46AD6826
:100830009E07360F0F27B740BD4305273F07B84235
:1008400001D100271AE0234FB84201D1012715E05A
:10085000214FB84202D1022710E030E01F4FB842CA
:1008600001D103270AE01E4FB84201D1042705E059
:100870001C4FB84201D1052700E00627B7402F439F
:100880006546AF60184D2E684F689643FF0300D54C
:1008900016432E606E684F689643BF0300D516431B
:1008A0006E60AE684F689643FF0200D51643AE6097
:1008B000EE684F689643BF0200D51643EE605B1C9E
:1008C0000A681546DA4000D052E7FCBD001002402D
:1008D000000001400004005000080050000C0050CF
:1008E00000100050001C0050000401400069084046
:1008F00000D001207047426913460B401B0491430E
:100900000B4383617047002A01D081617047816287
:1009100070470000014880687047000044000020D4
:1009200070B5024640325378202B1CD11378012B2E
:1009300019D00123137024245470046825689D4342
:100940002560046825681E03B54325600468256892
:100950000D43256000680168194301602020507034
:100960000020107070BD022070BD70B5024640328C
:100970005378202B1BD11378012B18D0012414702D
:100980002423537003681D68A5431D6005682B6808
:100990000F263602B3430902194329600068016833
:1009A00021430160202050700020107070BD022093
:1009B00070BD000070B5040006D02546403568784B
:1009C0000026002802D005E0012070BD2E702046D0
:1009D00000F062F924206870206801684908490025
:1009E00001600F2160680906884321680861216859
:1009F0008A680120C00382438A60E1680129A168F6
:100A000008D021229202114322689160E1680229F4
:100A100002D005E00143F7E701212268C9025160D5
:100A200021684A680F4B1A434A602168CA688243AA
:100A3000CA60616920690843A16909020843216805
:100A4000C860216AE069084321680860206801687D
:100A50000122114301606664202068702663AE7035
:100A6000002070BD00800002FFB50446002083B066
:100A70002546403501906A78202A74D1226892690F
:100A8000D24312047BD52A78012A78D001222A7019
:100A900024226A7060648F05BF0DE06801280BD0C6
:100AA0000520C00201213818890288432168486066
:100AB000FFF730FF06460CE03248F3E70698401C8B
:100AC00007D0FFF727FF811B0698814219D800281D
:100AD00017D02168886989698006C00FC906C90FC7
:100AE0000843EBD020688069069BC043C00600968F
:100AF00017D500222021204601F07EF9002830D1B0
:100B000007E020206870616C014361640020287058
:100B100027E021682020C86168700020287007B095
:100B2000F0BD00222021204601F066F9002818D1EE
:100B300021681020C86121682020C86101990598AA
:100B4000814214D12068416801229203114341601F
:100B50000096002220212046069B01F04DF9002836
:100B600002D00120DBE70AE021682020C86101985B
:100B7000401C01460190059881428ED3C1E70220B6
:100B8000CDE7000000200002FFB5054604464035D1
:100B9000687881B0202878D12878012875D0012084
:100BA0002870FFF7B7FE0746012200901923D103F2
:100BB000204601F021F900283CD121206870102046
:100BC000A870002666640398606204986085666376
:100BD000618D2F48FF2903D9FF22228500903BE039
:100BE000618D218500903DE02046029901F0F0F8EA
:100BF00016E001F04EF900281CD1606A21680078E7
:100C00008862606A401C6062608D401E6085208D35
:100C1000401E80B22085618D002901D000280CD0B3
:100C2000608D0A9900283A462046E2D101F00BF97E
:100C300000281CD0012005B0F0BD009700228021C3
:100C400020460A9B01F0D8F80028F3D1608DFF28D8
:100C500005D9FF222285009601231B06C4E7608D7B
:100C600020850096208D0123C2B25B06BCE7216877
:100C70002020C86121684A68064B1A404A606870A3
:100C8000AE702E700020D6E7FFE70220D3E7000009
:100C90000020008000E800FEF0B587B00446142173
:100CA0006846FFF7C0FA194F2668194C0221122234
:100CB000012303251748BE4210D1E66A0E43E662BF
:100CC000E66A6F460E4029022EC7042142C76946D4
:100CD000FFF74AFDA06B0121490513E00E4FBE420C
:100CE00012D1E66A0E43E662E66A6F460E400321C1
:100CF00089022EC7062142C76946FFF735FDA06B62
:100D0000012189050843A06307B0F0BD00540040ED
:100D10000010024000040050005800400248816862
:100D200002788918816070474400002010B5084897
:100D300000240168402211430160204600F00AF8B7
:100D4000002801D0012401E000F03CF8204610BD4D
:100D50000020024000B5014687B00022122000F0BA
:100D600047F8122000F03AF81148816B2022114315
:100D7000816305A9684600F0D3F900F0F1F90D4947
:100D8000FFF7F2F90D490C4A0A600D4A401ECA608D
:100D90004860002008618860084600F037FE00289F
:100DA00002D0012007B000BD044800F04AFEF9E778
:100DB0000010024040420F00001400405008002084
:100DC000E70300000448416B012211434163816B3A
:100DD000020411438163704700100240C106C90E2E
:100DE00001208840014908607047000000E100E0F0
:100DF00010B501F049F910BD024801688215114390
:100E00000160704700700040F8B504460068664D08
:100E1000810601D400057DD5634E0027403EB06BAE
:100E2000C00004D4B06B31040843B06301275F48AD
:100E30000168C90511D40168821511430160FFF7EB
:100E400069FD009005E0FFF765FD0099401A6428F0
:100E500044D856480068C005F5D531680320000520
:100E6000626801401040884205D10323A0681B0539
:100E70001840884208D09003800F032804D13068BE
:100E8000800301D50120F8BD286903210904084029
:100E900029D00A40824202D02278920606D4A26863
:100EA0000A4082421FD0208800051CD528692A6983
:100EB00088430121C9040A432A612A698A432A61B5
:100EC0002861C0050FD5FFF725FD009008E0FFF76A
:100ED00021FD0099411A3648814201D90320F8BD0D
:100EE00028698005F3D561688803800F032805D140
:100EF00032680005824301400A43326028690322B8
:100F000061681204114008432861002F06D0B06BBD
:100F1000012100E002E009078843B0632078C007A0
:100F200005D0E868E168800880000843E860207820
:100F3000800705D5E8680C21884321690843E860EB
:100F40002078400706D5E868032189028843616953
:100F50000843E8602078000706D5E8680321090304
:100F60008843A1690843E8602088C00506D5E86881
:100F7000032109048843E1690843E86020784006BA
:100F800006D5E868012189068843616A0843E8605C
:100F90002078000606D5E868032189048843216A81
:100FA0000843E8600020F8BD401002400070004097
:100FB00088130000F8B50E4605007DD05348006840
:100FC000C007C00FB0420AD2504801684908490022
:100FD000314301600068C007C00FB04271D128786A
:100FE0004B4C800705D5E068F0218843A968084389
:100FF000E0602878C00752D06868022817D003281C
:1010000018D02168012818D08905002959DAE1682B
:10101000890889000143E160FFF77CFC69680746A5
:10102000022912D003291CD0012926D033E02168DF
:101030008903EAE721688901E7E74907E5E7FFF760
:1010400069FCC11B3348814223D8E0680007800F48
:101050000228F4D123E0FFF75DFCC11B2D4881423B
:1010600017D8E0680007800F0328F4D117E0FFF7D6
:1010700051FCC11B274881420BD8E0680007800F54
:101080000128F4D10BE0FFF745FCC11B2148814248
:1010900001D90320F8BDE0680007800FF3D11B4899
:1010A0000168C907C90FB1420DD901684908490053
:1010B00031430160006800E003E0C007C00FB042A8
:1010C00001D00120F8BD2878400706D5E068072147
:1010D00009028843E9680843E0602878000707D5DB
:1010E000E0680721C90288432969C9000843E06014
:1010F00000F056F8E168084A0906090F515CC8403B
:10110000064908600020FFF725FEF8BD00200240D8
:1011100000100240881300005072000850000020A8
:1011200010B50F2202600C4AD3689B079B0F4360E7
:10113000D368F02423408360D46807231B021C403B
:10114000C460D268D2081A40026104480068C0072F
:10115000C00F086010BD00000010024000200240D7
:10116000044805490068C968044A4905490F515CAB
:10117000C84070475000002000100240697200080B
:10118000044805490068C968044A8904490F515C4C
:10119000C8407047500000200010024069720008EB
:1011A00010B5184AD1680C20084004280BD0082834
:1011B00010D00C2810D050680004410F0120C0034B
:1011C000491C884010BD1068C00601D50E4810BDEE
:1011D0000E4810BD0E4810BD88020E4B000F185C63
:1011E0000902D368890F491CDB0301D5084A05E0D1
:1011F0001268D20601D5044A00E0044A5043FEF7C3
:10120000B3FF10BD0010024000093D000024F400AF
:1012100000127A0060720008FEB505007ED0F94C1D
:10122000E7680C20E66807400120000406402878A3
:10123000C00747D0082F05D00C2F0AD10120000489
:10124000864206D1206880033CD568680028E5D036
:1012500038E0012069680004814203D1216801431C
:10126000216011E0052301221B04920499422168A8
:1012700002D111432160F1E78143216021680140DF
:101280000091206890432060686800280DD0FFF727
:1012900041FB009005E0FFF73DFB0099401A6428F0
:1012A0007ED820688003F6D50CE0FFF733FB009072
:1012B00005E0FFF72FFB0099401A6428F0D820685A
:1012C0008003F6D4287880075CD5E868810604D5C9
:1012D000226820210A43226088430923042F0DD06D
:1012E0000C2F01D1002E09D000283BD02168994352
:1012F00001432160FFF70EFB064627E021684907FE
:1013000001D500288AD061681F22120291432A6900
:101310001202114361602168994300E0C3E1014377
:101320002160FFF73DFFE16809060A0FB649895CB5
:10133000C840B64908600020FFF70CFD002873D1B3
:1013400020E0FFF7E7FA801B0228A9D820684007B1
:10135000F7D560681F2109028843296909020843FB
:1013600060600FE02068400840002060FFF7D2FA7C
:10137000064604E0FFF7CEFA801B022890D82068CA
:101380004007F7D42878C00660D5002F0DD0E86953
:1013900000284AD02068FF2101310843206000E086
:1013A000E8E0FFF7B7FA06462CE02068800502D592
:1013B000E8690028A6D06068072149038843696A64
:1013C000084360606068298C0002000A090608432F
:1013D0006060686A410B0120C003491C8840E168D5
:1013E00009060A0F8849895CC840884908600020BE
:1013F000FFF7B0FC002817D128E0FFF78BFA801B1D
:101400000228A2D820688005F7D560680721490323
:101410008843696A084360606068298C0002000A9A
:1014200009060843606011E023E12168FF200130D4
:1014300081432160FFF76EFA064604E0FFF76AFA7F
:10144000801B02289AD820688005F7D42878704E2F
:10145000000724D568690028306910D001210843AD
:101460003061FFF757FA009005E0FFF753FA009953
:10147000401A02287ED830698007F6D50FE0400870
:1014800040003061FFF746FA009005E0FFF742FAAE
:101490000099401A02286DD830698007F6D4287860
:1014A000400764D500200290A06BC00006D4A06B5A
:1014B000012109070843A0630120029055480168F3
:1014C000C90511D40168821511430160FFF722FAA2
:1014D000009005E0FFF71EFA0099401A642849D8E9
:1014E0004C480068C005F5D5FF20AA68013082424B
:1014F00003D131690143316111E001218902002AE0
:1015000007D005231B029A4203D132690A43326194
:10151000EFE7326982433261306988433061A868FD
:1015200000280ED0FFF7F6F9009006E0FFF7F2F979
:101530000099411A384881421CD830698005F5D598
:101540000DE0FFF7E7F9009006E0FFF7E3F90099F7
:10155000411A314881420DD830698005F5D402988E
:10156000002804D0A06B012109078843A0632878D4
:10157000800600E07CE02ED52848A96943140029A4
:1015800016D0A26801210A43A260626B0A4362631B
:10159000016A19430162FFF7BDF9064604E0FFF74F
:1015A000B9F9801B022863D8A0688007F7D512E03C
:1015B000A16849084900A160016A99430162FFF7E7
:1015C000A9F9064604E0FFF7A5F9801B02284FD8C9
:1015D000A0688007F7D4A86A002866D00C2F4DD0E9
:1015E000012636060228206805D0B0432060FFF7A8
:1015F00091F905463EE0B0432060FFF78BF90746BE
:1016000013E000000010024050720008500000205B
:1016100040100240007000408813000000000140AC
:10162000FFF778F9C01B022822D820688001F7D480
:10163000296BE86AE2680843696BFD231B049A433F
:1016400011430843E060206830432060FFF762F9EF
:10165000054604E0FFF75EF9401B022808D8206821
:101660008001F7D521E0FFF755F9401B022801D989
:101670000320FEBD20688001F5D416E00128F8D0D3
:10168000E06801210904EA6A014091420BD10F216F
:1016900089042A6B0140914205D103218905084044
:1016A000696B884201D00120FEBD0020FEBD10B54F
:1016B00000680B464068C021C94301400002000E8B
:1016C000CC04D870E40E5C708C06A40E0904490F9B
:1016D0009C701970002A0AD100F04AFDD870587821
:1016E00000F046FD5870987800F042FD9870002098
:1016F00010BD000030B50B460168896A5960016869
:1017000009694904490C9960006804680F4821463A
:10171000014088024D04800E18706D0E49065D7000
:10172000490E99706102490E40242140D970002A67
:101730000AD100F01DFD1870587800F019FD58709E
:10174000987800F015FD9870002030BD7F7F7F00F5
:10175000F8B5040050D0254620356878002803D11C
:101760002870204600F052F8022068702168CA20D4
:101770004862216853204862204600F00DFDFF2694
:1017800004270028206802D046626F7034E0816828
:101790001D4A11408160216888686268A36910430E
:1017A00022691A43104388602168E0680861206854
:1017B000016922891204114301612068C1688022F5
:1017C0009143C1602068C16C89088900C164E169E6
:1017D000606901432068C26C1143C164206880685D
:1017E00080060BD4204600F0F7F8002806D02068C9
:1017F00046626F70002028700120F8BD20684662A4
:10180000012068700020F8BDBFFF8FFF0068054908
:10181000884205D104480169012292041143016103
:10182000704700000028004040100240F8B505460F
:101830000446203528780B4601280FD00120287057
:1018400002206870002A0BD0D8789E7800040643E6
:101850005878097800024903084317E00220F8BDD0
:101860005878C10603D5EF2108400A305870D8785F
:1018700000F086FC0604587800F082FC0002064363
:10188000987800F07DFC06431878400306432168F1
:10189000CA204862216853204862204600F07CFC40
:1018A0000027002811D111480640206846602068B2
:1018B000C16880229143C1602068806880060CD492
:1018C000204600F089F8002807D02168FF204862F0
:1018D000042068702F700120F8BD2168FF20486245
:1018E000012068702F700020F8BD00003FFFFF004E
:1018F000F8B506460446203630780D46012822D039
:101900000120307002207070206800278068002A53
:101910001BD0400600D4EF702978A878090408434A
:101920006978EA780902120411430843009021689B
:10193000CA204862216853204862204600F02CFCEF
:10194000002837D116E00220F8BD400600D4EF7021
:10195000287800F015FC0304687800F011FC000200
:101960000343A87800F00CFC0343E8780004034329
:101970000093DCE717490098084021680860206858
:10198000816801229204914381602969E8680843D3
:1019900021688A68104388602068C168802291436A
:1019A000C1602068806880060CD4204600F014F8DE
:1019B000002807D02168FF2048620420707037702B
:1019C0000120F8BD2168FF20486201207070377047
:1019D0000020F8BD7F7F7F0070B504460068C168B5
:1019E000A0229143C160FEF795FF7D260546F600D3
:1019F00006E0FEF78FFF401BB04201D9032070BD07
:101A00002068C0688006F4D5002070BD70B5040061
:101A100005D025462035687E002802D006E001204A
:101A200070BD00202876204600F00AF80220687673
:101A3000211D206800F0D6FD01206876002070BDD1
:101A400070470268D36801210B43D3600068826845
:101A50005207520F062A02D002680A430260002091
:101A60007047704770B50446006801690025C94396
:101A70008907002915DBC168C943890711D4E91E0C
:101A8000016101202076206880698007204602D00D
:101A9000FFF7E7FF04E000F078F8204600F076F862
:101AA000257620680169C943490717D4C168C9432D
:101AB000490713D40421C94301610220207620681C
:101AC00080698005800F204602D0FFF7CAFF04E03E
:101AD00000F05BF8204600F059F82576206801698F
:101AE000C943090716D4C168C943090712D408219C
:101AF000C9430161042020762068C0698007204620
:101B000002D0FFF7AEFF04E000F03FF8204600F0FF
:101B10003DF8257620680169C943C90617D4C16814
:101B2000C943C90613D41021C94301610820207696
:101B30002068C0698005800F204602D0FFF791FF22
:101B400004E000F022F8204600F020F82576206816
:101B50000169C943C90708D1C168C943C90704D18C
:101B6000891E0161204600F013F820680169C9430D
:101B7000490609D4C168C943490605D44021C9436F
:101B80000161204600F00EF870BD704770470000FC
:101B900010B500680249884201D1FFF7BFF810BDB7
:101BA00000140040704710B5040003D0606F002897
:101BB00002D007E0012010BD002170200155204611
:101BC00000F026F824206067206801684908490071
:101BD0000160204600F0D0FD0128ECD0606A0028AA
:101BE00002D0204600F032FD206841680922D2026E
:101BF00091434160206881682A2291438160206876
:101C00000168012211430160204600F085FD10BDEE
:101C100010B586B0044614216846FEF704FB11494E
:101C2000206888421BD11048816B01225204114365
:101C30008163C16A01221143C162C06A69461040D2
:101C400005900C20009002200190002002900320BB
:101C500003900420049005200007FEF785FD06B0E0
:101C600010BD00000044004000100240FFB50446D3
:101C7000406F83B017460D4620285CD1002D0AD056
:101C8000002F08D0A168C001814207D12069002837
:101C900004D1E80702D0012007B0F0BD2046603033
:101CA0000290007C012846D0029801210174002096
:101CB000E06721206067FEF72DFE26464036019042
:101CC000378277820120A1680003814202D1206916
:101CD000002802D02F46002511E000270FE0002247
:101CE0008021204600F066FE002815D1002F15D077
:101CF0002168387888627F1C708A401E7082708AE2
:101D0000019B002806980090E9D10022402120463E
:101D100000F050FE002808D00320BDE72888216885
:101D2000C005C00D8862AD1CE6E7202060670299FF
:101D300000200874B0E70220AEE7FEE701688A6978
:101D4000D243920701D400228A6200688169C943A4
:101D5000C90703D0816901221143816170470000E6
:101D6000F7B5044600680E468069C043C0062BD410
:101D700020272546403520688069C043800612D55B
:101D8000701CF8D0FEF7C6FD0299401AB04201D887
:101D9000002EF0D1606C384360646F700020A87032
:101DA00028700120FEBD21681020C8612068C7612D
:101DB0002046FFF7C3FF20684168044A1140416094
:101DC000606C04210843E7E70020FEBD00E800FE48
:101DD000F0B50668059C7568064F600D384385436D
:101DE0008805800D1104084318432043054375609E
:101DF000F0BD0000FF63FF03F8B51D4617460E4611
:101E0000044609E0681C07D0FEF784FD0699401AD5
:101E1000A8420BD8002D09D020688169304688433C
:101E20000FD00020B842EDD00020F8BD616C20201A
:101E300001436164403460700020A0702070012074
:101E4000F8BD0120EEE770B516460D4604460FE0DA
:101E5000324629462046FFF783FF002801D00120A3
:101E600070BDFEF757FD801BA84208D8002D06D094
:101E700020688069C0438006EAD4002070BD616C90
:101E8000202001436164403460700020A070207005
:101E9000E5E770B516460D46044611E03246294680
:101EA0002046FFF75DFF002801D0012070BD681CAF
:101EB00006D0FEF72FFD801BA84208D8002D06D0C3
:101EC00020688069C0438007E8D4002070BD616C41
:101ED000202001436164403460700020A0702070B5
:101EE000E3E7000070B586B014216846FEF79BF961
:101EF0001B48C26A04210A43C262C26A0A400592B0
:101F0000C26A80210A43C262C26A0A400592C16A5B
:101F100001242143C162C16A21400591C26A0221A4
:101F20000A43C262C06A05260840360705900022AF
:101F300020213046FEF7E7FC60030025009069464B
:101F4000019502940748FEF70FFC2020694631C135
:101F5000694630460395FEF707FC06B070BD0000E9
:101F6000001002400008005010B50D480B490160F8
:101F70000C49416000218160016141618161012260
:101F8000C161C2600162FEF715FD00210448FEF741
:101F9000C7FC00210248FEF7E8FC10BD00540040D9
:101FA000AC0400201A06100010B50D480B49016062
:101FB0000C49416000218160016141618161012220
:101FC000C161C2600162FEF7F5FC00210448FEF722
:101FD000A7FC00210248FEF7C8FC10BD00580040D5
:101FE000F8040020380F300010B586B01421684680
:101FF000FEF719F9002415491548059412C07F21F0
:1020000001608460C4600461FF214461416008385C
:10201000FFF79EFB032168460170447084700394AF
:10202000012269460A480494FFF762FC01216846D0
:1020300001754175182181752121C175012205A9FC
:102040000348FFF7F3FB06B010BD00000028004076
:102050004405002010B50A4808490160E121490201
:10206000416000218160C16001618161C1610C2218
:10207000016242614162FFF796FD10BD00440040DD
:1020800068050020704700008307FF22DB0E9A409E
:102090008907090E994000280BDA0007000F08385D
:1020A000830808489B001818C36993430B43C36116
:1020B0007047830804489B001B1818689043084326
:1020C0001860704700ED00E000E400E086B01C4DB1
:1020D00000241C480122816902A801F0D9FA18499C
:1020E00000220846A438039F029EFFF703FB154910
:1020F000134800222031A438FFF7D9FA102E00D15E
:10210000FCB20094AB786A7829780FA001F07EFBCE
:1021100001F038F90121084600F090F8224612A19A
:1021200001A800F079FC0122104901A800F08EF905
:1021300000F0A0F97D20C00001F088FAC9E7000096
:10214000E8050020200000202564203A2025642096
:102150003A202564207C20636F756E7465723A2086
:102160002564200D200A00002564000000000020E6
:1021700001090A2200075143000F4018C0B27047FE
:102180000022014602E00A39C9B2521C0A29FAD2D9
:102190001007000E0843704770B504460068C16818
:1021A000490613D40021C943C160FEF7B3FB7D2665
:1021B0000546F60006E0FEF7ADFB401BB04201D934
:1021C000032070BD2068C0684006F4D5002070BDB3
:1021D00010B5002000F024F810BD000070B5802874
:1021E00015D2402913D24D0701246D0F0A4BAC4084
:1021F000C9081E79C901094B0818002E02D0002A0F
:1022000006D001E0012A03D0195CA143195470BD26
:10221000195C2143FAE7000018000020AC00002000
:1022200010B5002806D0FF22012189020248FDF7DF
:10223000F3FF10BD0022F7E7AC000020014A108038
:10224000518070471800002010B55748401EFDD13E
:10225000564B012278215648FEF706FC002801D093
:10226000002010BD5348401EFDD1AE220021782031
:1022700001F056FD20220021782001F051FD1022AE
:102280000021782001F04CFDB0220021782001F0DF
:1022900047FDC8220021782001F042FD00221146AE
:1022A000782001F03DFD10220021782001F038FD5A
:1022B00040220021782001F033FD81220021782086
:1022C00001F02EFDFF220021782001F029FDA1223E
:1022D0000021782001F024FDA6220021782001F0C1
:1022E0001FFDA8220021782001F01AFD3F220021C5
:1022F000782001F015FDA4220021782001F010FDC6
:10230000D3220021782001F00BFD00221146782015
:1023100001F006FDD5220021782001F001FDF02218
:102320000021782001F0FCFCD9220021782001F066
:10233000F7FC22220021782001F0F2FCDA220021B1
:10234000782001F0EDFC12220021782001F0E8FC59
:10235000DB220021782001F0E3FC202200217820FC
:1023600001F0DEFC8D220021782001F0D9FC14223E
:102370000021782001F0D4FCAF220021782001F068
:10238000CFFC2E220021782001F0CAFC0020FFF7AC
:1023900047FF00F06FF808480021018041800121CB
:1023A0004171084610BD00008FD00300204E000090
:1023B000AC040020C209000018000020F7B50D464B
:1023C00021482A7801888918802904D240886978B0
:1023D0004018402801D30020FEBD002627E00099C8
:1023E0006A682039484380194000175A00241AE0CF
:1023F0003846A040000408D51348029A4188008856
:102400008919001989B280B20AE00298002818D010
:1024100000220D48418800888919001989B280B2CC
:10242000FFF7DCFE641C2878A042E1D8761C6878AF
:10243000B042D4D804482A780188891801800098CD
:10244000FEBD0122E5E700001800002070B515462A
:102450000E46044609E02A463146FFF7AFFF2178D1
:10246000884201D0C8B270BD641C20780028F2D127
:10247000C0B270BD70B50F4D00242046B030C2B25E
:102480000021782001F04CFC00221146782001F058
:1024900047FC10220021782001F042FCE0014219A3
:1024A00080234021782001F04BFC641CE4B2082C0E
:1024B000E3D370BDAC0000207047012001F0C6F8E6
:1024C000FBE7000010B5FDF719FE044602F012F913
:1024D000002803D001200349000748602046FDF78B
:1024E00011FE10BD00ED00E010B59EB03821684629
:1024F000FDF799FE142118A8FDF795FE28210EA8D6
:10250000FDF791FE1C4801680324E402A143C214B4
:1025100089180160FEF770FC18480169A143016148
:1025200006200090FF20013002900120039010202F
:10253000049002200A9080040C90000100240D9069
:102540000B946846FEF768FE0F2018900320199040
:102550001A941B9401211C9418A8FEF72BFD2A2025
:102560000E90012040031490C0000F9012940EA80A
:10257000FEF74AFC1EB010BD007000404010024043
:1025800010480168821511430160C1680E4A11406C
:10259000C16001680D4A1140016081684908490025
:1025A000816001680122920491430160C168FD22AB
:1025B00012049143C160002101610549C003886094
:1025C00070470000001002400C40FF88F6FFF6FE46
:1025D00000ED00E010B50248FFF744FA10BD00001E
:1025E00050080020F0B502680124A407144D154ED0
:1025F000154FA04205D0A84203D0B04201D0B84246
:1026000004D11346702293434A681A43A04205D06E
:10261000A84203D0B04201D0B84204D103231B0228
:102620009A43CB681A4380239A430B691A4302608A
:102630008A68C2620968816201214161F0BD0000BF
:1026400000040040000801400014014010B5818CD6
:10265000C90707D001684A6801235B049A43836A6B
:102660001A434A60818C890707D501684A680123AB
:102670001B049A43C36A1A434A60818C490707D5F1
:1026800001684A6801239B049A43036B1A434A601A
:10269000818C090707D501684A680123DB039A4347
:1026A000436B1A434A60818CC90607D5026891685A
:1026B00001231B039943836B19439160818C890625
:1026C00007D501688A6801235B039A43C36B1A43E9
:1026D0008A60818C490612D503685A680121090570
:1026E000046C8A4322435A60026C8A4207D1026812
:1026F000516803235B059943436C19435160818CF6
:10270000090607D501684A680123DB04806C9A43F7
:1027100002434A6010BD0000F8B500260446C667B3
:10272000FEF7F8F8054620680068124F000709D543
:1027300001212B46002249052046009700F03AF976
:1027400000280DD12068006840070BD501212B46D9
:10275000002289052046009700F02CF9002801D0BE
:102760000320F8BD20206067A06760342674002035
:10277000F8BD0000FFFFFF01F8B504462669A26816
:10278000E76932436669102000253E4323683243DF
:102790007B491E687B4F3E4016431E60226853688B
:1027A00003263603B343E668334353602368A269C4
:1027B0008B4201D0266A32439E680B273F02BE43FC
:1027C00016439E60704E2368704AB3420CD1D268A3
:1027D0009207920F06D0012A3ED0022A3AD0032A4D
:1027E00026D124E0012023E0694EB3420AD1D26809
:1027F0000C2632402CD0042A2ED0082A2AD00C2AAB
:1028000016D114E0634EB34222D0634EB3421FD0C0
:102810008B420DD1D66803229202164018D00122B5
:102820009202B61A18D0B61A14D0964200D10820D7
:10283000564A0126403A594FF6038B4236D10028BA
:102840000CD002280DD0042812D008281FD11CE07B
:102850000020EDE70220EBE70420E9E7FEF780FC2B
:1028600008E01068C00601D5384605E04C4803E092
:10287000FEF796FC002873D062685100511881421F
:1028800005D81103814202D303E03046F4E7012565
:1028900066E0010E06025008002330185941FDF78A
:1028A00079FC03210902411A3E4A55E0E169B1422F
:1028B00032D1030000F0EDF809070A0D06250606DF
:1028C000062B0600E3E7FEF74BFC1CE0FEF758FC86
:1028D00019E010686168C00602D54808324A01E074
:1028E000324A48088018FDF73FFC80B20146304A62
:1028F00010399142CBD8511C01400007400F0843CA
:102900002CE0FEF74DFC616840004A08EAE7616888
:10291000012248081204E5E7030000F0BAF80907AD
:102920000A0D06260606062C0600B0E7FEF718FC80
:102930001DE0FEF725FC1AE010686168C00602D5AC
:102940004808C01902E016484A081018FDF70CFCA8
:1029500080B20146164A1039914298D82168C86061
:102960000020206660662846F8BDFEF719FC616805
:102970004A088018EAE7616848088019E6E700001D
:1029800000480040F369FFEF00380140401002406A
:1029900000440040004C00400050004000093D0051
:1029A0000024F400FFFC0F0000127A000048E80148
:1029B000EFFF0000FFB581B017460E4604460A9DA2
:1029C00009E0681C07D0FDF7A5FF0499401AA8424A
:1029D0000CD8002D0AD02068C1693046884318D031
:1029E0000020B842EDD0002005B0F0BD206801689D
:1029F000FF22A132914301602068816849084900A3
:102A0000816020206067A06700206034207403206C
:102A1000EAE70120E5E700000FB410B504A9074B71
:102A200002AA039800F00CF9044602A9002000F065
:102A3000A3FC204610BC08BC04B01847793300083A
:102A400037B514460846064B6A46214600F0F8F8AA
:102A500004466946002000F08FFC20463EBD000081
:102A6000793300082021020C01D010211046020AFF
:102A700001D010460839020901D01046091F82080A
:102A800001D01046891E420801D0881E7047081ADE
:102A9000704730B47446641E2578641CAB4200D283
:102AA0001D46635D5B00E31830BC184702E008C8B0
:102AB000121F08C1002AFAD170477047002001E0B8
:102AC00001C1121F002AFBD170470000F0B51FB4EE
:102AD00086B00998089A030D0021024314D051488A
:102AE000514A1818504305141198012810981AD00B
:102AF000281A401C00264D4F4D4900960191049024
:102B0000002812DA444211E01198012449A3012857
:102B100001D11098C1430698119A84600360C26085
:102B200041600BB0F0BD4042E4E7044621050020BF
:102B30003F4A001C51410391029012E0E00707D088
:102B400032463B4601990098FDF752FC01910090F6
:102B500032463B4610461946FDF74AFC06460F46EC
:102B60006410002CEAD10498039B0028029A09996A
:102B7000089806DAFDF73CFC019B009AFDF738FC4B
:102B800005E0FDF79DFC019B009AFDF799FC0446CA
:102B90000E460022284BFDF72BFD03D80020C04332
:102BA000014607E00022254B20463146FDF76EFB2B
:102BB000FDF7FEFC102409E0002C0ADB0A220023AA
:102BC000FDF7E8FA079B30321A55641E02460A43A5
:102BD000F2D11122641C079B121B1C19119B012BA3
:102BE00003D0012308430ED10AE0084304D011208A
:102BF00010900020119077E71098151A6D1E0BE0C9
:102C00001098824202DD00236D1C03E0824201DA4B
:102C100000236D1E002BEED0069811998260C160D2
:102C200030C07EE701FCFFFF104D000000001440A3
:102C30000000F03F300000000000F0430000E03FE3
:102C4000FFB597B00646002518E2252877D1002465
:102C50002746FD49049400E00443761C32780120A5
:102C6000203A90400842F7D130782A280ED002222C
:102C7000307801463039092916D804990A23594376
:102C8000303940181443761C0490F1E7189802C8B4
:102C900004911890002904DA0120400304434842BB
:102CA000049002200443761C30782E2814D104208E
:102CB00004437078761C2A2809D11898761C80C89D
:102CC000189009E00A214F43303FC719761C30782D
:102CD000014630390929F5D930786C2810D006DC46
:102CE0004C281AD068280ED06A2817D104E074281E
:102CF00013D07A2812D110E00120400504430CE0E3
:102D00000121090501E0032109050C437178814285
:102D100003D1012000052418761C761C3078119010
:102D200066280BD013DC58287DD009DC00287BD026
:102D30004528F6D04628F4D047281AD1A5E118E056
:102D4000632835D0642870D0652812D19DE17028A1
:102D50006CD008DC6728F1D069287BD06E280DD0B4
:102D60006F2806D1BAE073282ED0752871D0782844
:102D700059D01A9A199990476D1C7EE16002400F54
:102D8000022809D003280DD00428189801680DD016
:102D90000D60001D189070E11898EA1701680D6029
:102DA0004A60F6E7189801680D80F2E70D70F0E7C9
:102DB00018986A4601781172001D18900020507210
:102DC00002A80090012005E0189802C81890002081
:102DD0000091C04361070DD5002101E00199491C14
:102DE0000191B94212DA8142F8DB009A515C002964
:102DF000F4D10BE0002101E00199491C01918142CD
:102E0000FADB019A0099895C0029F5D101990498AF
:102E10001A9B471A21463846199A00F097FA0199E9
:102E2000401945180BE04FE02CE113E04EE000980C
:102E300000990078491C00911A9A199990470198B5
:102E4000401E0190401CF2D1214638461A9B199A27
:102E500010E137E00A200021009001916002410F4B
:102E6000022907D0189A01CA1892C217944603295A
:102E700008D00AE01898C01DC108C90005C91891FA
:102E8000944607E000B2C2179446042902D140B22A
:102E9000C1178C4600226146944506DA0A46002195
:102EA000404291418C462D2102E0210504D52B2181
:102EB0006A461173012103E0E10701D02021F7E701
:102EC000029155E00A200AE0102008E0102000904E
:102ED0000021042004430191082703E00820002179
:102EE000019100906002410F022907D0189A01CA8F
:102EF000189200229446032908D008E01898C01DB3
:102F0000C108C90005C91891944603E080B204299C
:102F100000D1C0B200210291210729D51199702951
:102F200006D0009A1021019B4A401A4305D00EE0BA
:102F300040216A461173012108E06146014306D031
:102F400030216A4611731199517302210291009A3E
:102F50000821019B4A401A430AD16146014301D12D
:102F6000610705D530216A46117301217F1E029148
:102F70001199582904D035A10E910DA90D910DE09C
:102F800037A1F9E76146019B009AFDF703F90E9B13
:102F90008C469B5C0D9A521E0D9213706146014344
:102FA000F0D10D9805A9081A20300190600703D5CB
:102FB00001200004844300E001270198874201DDDD
:102FC000381A00E000200199009041180298091871
:102FD0000498401A0490E00306D421461A9B199ADB
:102FE000049800F0B3F94519002706E003A81A9ADF
:102FF000C05D199990476D1C7F1C02988742F5DBD4
:10300000E0030CD521461A9B199A049800F09EF90A
:10301000451904E01A9A3020199990476D1C0099BF
:10302000481E00900029F5DC08E00D980D99007805
:10303000491C0D911A9A199990476D1C0199481EC7
:1030400001900029F1DC63E10928010030313233BD
:1030500034353637383961626364656600000000D4
:1030600030313233343536373839414243444546BE
:103070000000000000F05AF94519761C307800284D
:1030800000D0E2E528461BB0F0BD600700D406275B
:103090001898C01DC108C90048680A680831C30FE4
:1030A000DB071891190001D09CA108E0210501D58A
:1030B0009BA104E0E10701D09AA100E09AA143009E
:1030C00011985B08109165280CD006DC452809D0C2
:1030D00046281DD0472841D141E0662818D06728EE
:1030E0003CD13CE00021112F01DB112000E0781CD5
:1030F0000191009008A911A8FFF7E8FC1399059128
:103100000021119A15927F1C12980197009150E0AE
:103110000120C00703900120019008A9009711A881
:10312000FFF7D4FC139A149905920022119B009288
:1031300012981593059A0192002901D0104602E0D9
:10314000791C40180190381A01D5019804E04042DA
:10315000401E0090781C0190C01B029043E0012F9C
:1031600000DA01270021112F01DD112000E038468F
:103170000191009008A911A8FFF7A8FC13990591E7
:10318000119A0021129815920091019721070CD4F1
:103190000599B94201DB019900E00191012904DDA3
:1031A000159A491E515C302906D0B84201DA011D3A
:1031B00005DA0121029115E00199491EEDE7002889
:1031C00005DC0099411800910199091A03E0019A60
:1031D000411C914200DD01910099401A401C02906F
:1031E0000120C0070390200706D40299019881426C
:1031F00002DB0020C043029000206946C87707AF79
:10320000012103980337C907884224D00220119076
:103210002B201290039800280CDA404203902D20B6
:10322000129007E00A210398FCF79EFF30317F1EC1
:10323000039039701199481E11900029F2DC03980F
:103240000028EFD1791E12980870307820210840AC
:103250004530BF1E387006A8C01BC01D03901098D3
:103260000078002800D00120019941180298C01769
:103270000918039809180498401A401E0490E003A6
:1032800006D421461A9B199A049800F05FF8451954
:1032900010980078002803D01A9A199990476D1C4D
:1032A000E00324D521461A9B199A049800F04EF8A1
:1032B00045191CE00098002807DB00990598884212
:1032C00003DD1598405C199901E0199930201A9A8C
:1032D000904700986D1C401C00900298401E029080
:1032E000002804D11A9A2E20199990476D1C019933
:1032F000481E01900029DDDC05E038781A9A7F1C11
:10330000199990476D1C0399481E03900029F4DC1D
:1033100021461A9B199A0498ACE600002D00000083
:103320002B0000002000000000000000F8B504465B
:1033300000251E461746880404D405E0394620209F
:10334000B0476D1C641EF9D52846F8BDFFB504468C
:10335000002581B01E46C80301D5302700E0202794
:10336000880404D505E038460399B0476D1C641EF7
:10337000F9D5284605B0F0BD0A68531C0B601070E3
:103380007047000030B53E4985B008460022A43899
:10339000FEF7B0F93A4800223A49A438FEF787F917
:1033A000FEF716FF00210F20FEF748FF354D344C85
:1033B000203D287863782278002801D032A100E0EF
:1033C00034A101A8FFF728FB0122354901A8FFF726
:1033D0003DF8A2782DA101A8FFF71EFB012231497B
:1033E00001A8FFF733F819210F20FEF727FF254822
:1033F000C1780091437882782BA101A8FFF70CFBDC
:1034000001222D4901A8FFF721F82078401F072845
:1034100008D232210520FEF711FF0122214927A001
:10342000FFF714F820780C38042808D8322105203A
:10343000FEF704FF01221B4924A0FFF707F82078BC
:103440001138032808D232210520FEF7F7FE0122A9
:10345000144923A0FEF7FAFF2078142801D204288B
:1034600008D832210520FEF7E9FE01220D4920A0EF
:10347000FEF7ECFF287801214840287005B030BDE8
:10348000E805002040000020253032643A25303223
:1034900064000000253032642025303264000000D2
:1034A0001000002000000020253032642F2530322B
:1034B000642F25303264000008000020476F6F64DD
:1034C000204D6F726E696E67203A2900476F6F64F6
:1034D0002041667465726E6F6F6E203A290000009D
:1034E000476F6F64204576656E696E67203A2900E4
:1034F000476F6F64204E69676874203A29000000A6
:10350000EFF30580002800D0012070470025052634
:10351000ED430B4C36077D27FF002946E06900F09C
:10352000BEFF20213046FDF7E6F9384600F08EF860
:1035300000231A461946E06900F022FEEDE700007C
:103540002000002000250526ED430B4C36077D2783
:10355000FF002946E06900F0A2FF20213046FDF778
:10356000CAF9384600F072F800231A461946E06995
:1035700000F006FEEDE7000020000020AAB0FDF7F5
:10358000D5FBFEF7B1FFFEF7ADFCFEF763FDFEF7DE
:10359000EBFCFEF729FDFEF707FDFEF755FE0020C8
:1035A00004900590012104A800F0E4F8224C234B7C
:1035B000E0610FCB03936B4607C30021684600F020
:1035C00052F81E49A0611C22103106A8FCF712FE19
:1035D000002106A800F0EEF8184960601C222C318A
:1035E0000DA8FCF707FE00210DA800F0E3F8134931
:1035F000A0601C22483114A8FCF7FCFD002114A88F
:1036000000F0D8F80D49E0601C2264311BA8FCF7DB
:10361000F1FD00211BA800F0CDF8084920611C2213
:10362000803122A8FCF7E6FD002122A800F0C2F8B4
:10363000606100F013F8FEE720000020B47100087C
:1036400001460020842900D0C81C704710B500280E
:1036500000D1012000F028FC002010BD10B500F0C2
:1036600093FC002010BD38B5826804684168002AC8
:1036700008D0C368002B05D000200090204600F041
:1036800029FD38BD0022204600F006FD38BD0000AF
:10369000F0B585B000260D46074601960291002937
:1036A0001BD000240396501C1CD0002A00D01446C6
:1036B000FFF726FF694600281AD003AA2846091DED
:1036C00000F0B1FE012810D00096039800281AD00F
:1036D000012011490007486015E0802031462A4644
:1036E000009012E00024E443E2E710200090ECE7B1
:1036F00022462846091D00F015FE012808D0002C9E
:1037000008D0402000906B4607CB07C705B0F0BD3E
:103710001020F7E70020F5E700ED00E037B505469B
:10372000002082B00090140000D10124FFF7E8FED1
:1037300000280FD000236A4603A9284600F0ACFDFC
:1037400001280FD1009800280FD001200849000758
:1037500048600AE00023224603A9284600F010FD35
:10376000012802D0FF2005B030BD0020FBE700009B
:1037700000ED00E038B54368002B09D0012909D1DC
:103780000320002200901146012000F0A3FC38BD68
:10379000012901D0002038BD03220021012000F0C2
:1037A0007BFC040004D000231A46194600F0E8FC14
:1037B000204638BD7FB50D46044641690820205E8D
:1037C000002911D0A16900290ED0FFF739FF6B46FF
:1037D000A269616907C32B4622692168606800F00D
:1037E00056FF039004B070BDFFF72AFF03A90191B3
:1037F0000090208A2B4682B22168606800F01EFF8C
:10380000012801D00020EDE70398EBE70FB400B5E5
:1038100095B017AA68461699FFF712F96846FCF7A3
:103820000DFD82B20023DB4369460348FEF71EFA12
:1038300015B008BC04B0184768050020F8B5134C53
:103840000F46666905462068001D00F095FA681C61
:1038500007D1002F05D021680D48091D00F0D0FACE
:10386000F8BD2068751945602168B54204D2A0688A
:10387000091D00F0ADFAF8BD6068091D00F0A8FA56
:10388000206B8542F7D22563F8BD0000540000206C
:1038900068090020F8B5054600F0BEFA294C2069F9
:1038A000401C20612068284F002803D0E0690028D0
:1038B00027D02CE025602069012828D1002614207B
:1038C0007043C01900F076FA761C072EF7D31E4815
:1038D0008C3000F06FFA1C48A03000F06BFA1A48E8
:1038E000B43000F067FA1848C83000F063FA1648A0
:1038F000DC3000F05FFA14488C3060601430A06057
:1039000005E02068E96AC06A884200D82560E06A5C
:10391000401CE062E86AA169884200D9A0611421D4
:103920004843C019291D00F06BFA00F081FAE069E4
:10393000002806D02068E96AC06A884201D200F0F7
:10394000A7FAF8BD540000208C08002010B5026CC6
:103950000C46002A0CD0C1688B18C36041688B42AA
:1039600001D2194601E00168C1602046FCF742FC23
:1039700010BDF8B5856B174604460026026C002A78
:1039800011D0002F19D0E068FCF734FCE168206CFE
:10399000091AE1602268914202D26168081AE06067
:1039A000022F17D019E02068002816D1606800F0B7
:1039B000FFFE0646002060600FE0A068FCF71AFCDE
:1039C000216CA0684018A0606168884205D3206817
:1039D000A06002E0002D00D06D1E6D1CA563304676
:1039E000F8BD10B504464030407C002805D00128C1
:1039F00006D0022807D072B6FEE7206B00F026FA48
:103A0000204600F023FA10BD01210E4809034207A9
:103A100005D0C01DC0080B4AC000821A891A0A4A84
:103A20000023411809C20839C908C900183A1160B1
:103A30004B600B600B1A0AC093600120C0075360F3
:103A4000D06070477C090020A00000200F4E104C71
:103A50003746C83F11E000F0DFF9F068C568281D5F
:103A600000F08AF92069401E2061E068401EE06095
:103A700000F0DEF92846FFF7B4FFE0680028EAD13D
:103A800038680128F9D900F003FAF6E75409002054
:103A90005400002010B503460298002906D00260A9
:103AA000C3630164012100F035FB10BD0060F7E73E
:103AB000FFB581B00C9C9000236B001F1818C6083E
:103AC0000A9DF600700701D072B6FEE723180A5C63
:103AD00020331A750A5C002A02D0401C1028F5D346
:103AE0002046403000270090C770072D00D30625E0
:103AF000E562A764201D656400F067F92046183070
:103B000000F063F924610720401B6462A061E76450
:103B1000009807743046049A019900F0F1F820608B
:103B20000B98002800D0046005B0F0BD30B51149F5
:103B300000E011460A688242FBD34B685C1884425D
:103B400003D1406818184860084643681C1894421E
:103B500009D1084C103C2468A24209D052689A1836
:103B600042600A6812680260814200D0086030BD7D
:103B70000460F9E7A000002010B5044600F04CF9FD
:103B8000A06B002804D0002400F052F9204610BD9C
:103B90000124F9E7064841680968002905D0416811
:103BA000C968C9684968016370470021C943FAE7D9
:103BB0005400002003480068401C72B600D0FEE7A5
:103BC000FEE70000A8000020F8B5044600F024F944
:103BD000254640350526AE57274624370BE0606A58
:103BE00000280AD0384600F053FE002801D000F02B
:103BF0007BF9761E76B2002EF1DC0027FF436F7151
:103C000000F016F900F008F90426AE5720461030EF
:103C100000900BE0206900280AD0009800F038FEE0
:103C2000002801D000F060F9761E76B2002EF1DC9B
:103C30002F7100F0FDF8F8BDF8B50546002700F03B
:103C4000CFF9284E3068002801D1FFF7DDFEF0687B
:103C500005423FD1002D3DD00835680708D06807E0
:103C6000400F0821081A4519680701D072B6FEE70F
:103C7000002D2FD0706885422CD81A48103001468C
:103C80000C6801E020460C466168A94202D2216816
:103C90000029F7D131688C421CD007682168016087
:103CA00060680837411B102908D96019420701D004
:103CB00072B6FEE741606560FFF738FF61687068C3
:103CC000401A7060B268904200D2B060F068014360
:103CD000002003C400F00EFE780701D072B6FEE7A4
:103CE0003846F8BD9000002004490868002803D039
:103CF0000868826C521C8264086870475400002077
:103D000010B50124031F24061C601B1F1960191F16
:103D1000024B0B60143940380A6010BDB53B0008F7
:103D20001CB56B4619715A710A2100910146022394
:103D300001AA0248FCF728FF1CBD0000AC040020CB
:103D400070B5C2B06C462171002401A904E0155D74
:103D50000E19641C7570E4B29C42F8D30A210091DC
:103D60005B1C01469BB201AA0248FCF70DFF42B062
:103D700070BD0000AC0400204368826801699A604D
:103D8000836842685A604A68824201D182684A6008
:103D9000002202610868401E086008687047000041
:103DA000034B036018465430086080201060704751
:103DB000FC0500200146083100224160D243C16069
:103DC000826001610021016070470021016170473C
:103DD00030B50B685A1C02D00246083202E0026974
:103DE00004E02246546825689D42FAD953684B6026
:103DF00099608A60516008610168491C016030BDAA
:103E000042684A6093688B6093685960916008616A
:103E10000168491C0160704772B604480168491C7A
:103E20000160BFF34F8FBFF36F8F7047A800002072
:103E300005490868002804D0401E086000D162B619
:103E4000704772B6FEE70000A800002070B5002899
:103E50001AD004460D4D083C6068E968084201D15B
:103E600072B6FEE72268002A01D072B6FEE78843E8
:103E7000606000F0B5F860686968401868602046C6
:103E8000FFF754FE00F036FD70BD000090000020EA
:103E90000120044900074860BFF34F8FBFF36F8FC5
:103EA0007047000000ED00E010B502000FD0094897
:103EB000806B002801D072B6FEE700F091F8002177
:103EC0001046FFF7BBFC00F015FD002801D1FFF7FD
:103ED000DFFF10BD5400002002498A6A0260496970
:103EE000416070475400002001490120486270473A
:103EF0005400002010B50C46002809D00549096877
:103F00001831FFF765FF01212046FFF797FC10BD30
:103F100072B6FEE75400002070B504002FD0A26CEA
:103F2000002A0ED0606C884200D30146E06A8842C5
:103F300025D0012A23D1124D2A68944203D172B6AA
:103F4000FEE772B6FEE7E162A269002A02DB072201
:103F5000511AA16114220B4E5043616980198142AC
:103F60000DD1201DFFF708FFE06AA969884200D93A
:103F7000A861142148438019211DFFF741FF70BD3E
:103F8000540000208C08002010B586B00024039453
:103F900005AA04A903A80494FFF702FF0499039853
:103FA000009401910290002309A10B48059A00F0AA
:103FB0006EFB0A490028486308D072B60020C0434F
:103FC00008630120C8614C6100F03EF806B010BDE6
:103FD00049444C45000000004D3A000854000020C0
:103FE0000248816B491C8163704700005400002027
:103FF00010B51348816B002902D00121416210BD28
:104000000021416281690F4A02E0002915D0491E52
:1040100014234B43D358002BF7D014234B439A1847
:10402000536814465B6808345360A34201D15B684F
:104030005360DA680260816110BD72B6FEE700006D
:10404000540000208C08002070B50F48016AFF2240
:10405000120411430162016A1202114301620B4C06
:1040600000252561A5610A487D21C9000068FCF78B
:104070007BF8401E60610720206106480560FCF760
:1040800029F8002070BD000000ED00E000E000E035
:1040900050000020A8000020F8B517460E46050085
:1040A00014D0002E14D070434830FFF7C5FD040033
:1040B0000AD0002146200155224648323B4631466F
:1040C00028460094FFF7E6FC2046F8BD72B6FEE7EE
:1040D0000020E9E7F8B5069D002806D0002B06D0A1
:1040E000002A08D0002904D009E072B6FEE772B6B3
:1040F000FEE772B6FEE7002901D072B6FEE748245B
:104100001C46012640339E712B460094FFF7C2FCEB
:104110002046F8BD70B50D46040025D0FFF77CFEA3
:10412000216CE06B48432168411861600021A16364
:104130002168A160E06B216C401E48432168411852
:10414000E1600021C943204640300171417130389F
:10415000002D0BD0FFF72EFE20462430FFF72AFE5D
:10416000FFF766FE012070BD72B6FEE721690029E7
:10417000F6D000F08DFB0028F2D0FFF789FEEFE7C4
:10418000FFB5002683B01D46040003D00498002824
:1041900002D006E072B6FEE7206C002801D072B6AD
:1041A000FEE7022D04D1E06B012801D072B6FEE7D4
:1041B00000F090FA0027002804D10598002801D0CB
:1041C00072B6FEE7FFF728FEA06BE16B884207D3CB
:1041D000022D05D00598002817D0002E18D01BE01E
:1041E0002A4620460499FFF7C4FB616A002903D0E0
:1041F0002046243000F04CFB002801D0FFF748FE99
:10420000FFF716FE012007B0F0BDFFF711FE22E018
:104210006846FFF761FE0126FFF70AFEFFF7E0FEA2
:10422000FFF7FAFD2046403004214156491C00D1D9
:10423000077105214156491C00D14771FFF7F8FD70
:1042400005A9684600F0CCF9002806D02046FFF703
:10425000BBFC00F04FFB0020D5E7FFF7DDFDA06BB6
:10426000E16B884210D1FFF7E3FD2046103005993D
:10427000FFF740FE2046FFF7A7FC00F03BFB0028BD
:10428000A0D1FFF705FE9DE7FFF7D2FD2046FFF71F
:104290009BFC00F02FFB95E7FFB581B01E460400A4
:1042A00003D00298002802D006E072B6FEE7206C28
:1042B000002801D072B6FEE7022E04D1E06B01287F
:1042C00001D072B6FEE7FBF719FF0090A06BE16B1F
:1042D000884208D3022E06D000240098FBF712FF74
:1042E000204605B0F0BD204640300525455707461D
:1042F000324620460299FFF73CFB681C03D06D1C38
:104300007D710124E9E7606A0028FAD02046243054
:1043100000F0BEFA0028F4D003980028F1D0012163
:104320000160EEE7F7B5002582B0040003D00398E2
:10433000002802D006E072B6FEE7206C002801D00B
:1043400072B6FEE700F0C6F90026002804D10498F2
:10435000002801D072B6FEE7FFF75EFDA76B002FC5
:1043600015D020460399FFF7F1FA7F1EA763206955
:10437000002807D02046103000F08AFA002801D02B
:10438000FFF786FDFFF754FD012005B0F0BD04984E
:10439000002802D0002D03D006E0FFF749FD27E0FA
:1043A0006846FFF799FD0125FFF742FDFFF718FE6C
:1043B000FFF732FD2046403004214156491C00D110
:1043C000067105214156491C00D14671FFF730FDA9
:1043D00004A9684600F004F9002820460AD0FFF737
:1043E000F3FB00F087FA2046FFF7C6FB0028B3D0A6
:1043F0000020CAE7FFF7C0FB00280ED0204624307B
:104400000499FFF777FD2046FFF7DEFB00F072FA14
:104410000028A1D1FFF73CFD9EE72046FFF7D4FB23
:1044200000F068FA98E7F7B582B0040003D003986B
:10443000002802D006E072B6FEE7206C002801D00A
:1044400072B6FEE7FBF75AFE0090A66B002E1FD057
:104450002046403004254557074620460399FFF77C
:1044600075FA761EA663681C03D06D1C3D7101248D
:104470000FE020690028FAD02046103000F008FA3A
:104480000028F4D004980028F1D001210160EEE763
:1044900000240098FBF736FE204605B0F0BDF3B5CA
:1044A000002683B0041E354604D0206C002803D0BB
:1044B00072B6FEE772B6FEE700F00CF9002700289E
:1044C00004D10498002801D072B6FEE7FFF7A4FCDF
:1044D000A06B002817D0401EA0632068002802D1DE
:1044E000FFF702FC60602069002807D020461030EA
:1044F00000F0CEF9002801D0FFF7CAFCFFF798FCC6
:10450000012005B0F0BD0498002802D0002E07D08D
:104510000AE0002D01D072B6FEE7FFF789FC5CE0EF
:104520006846FFF7D9FC0126FFF782FCFFF758FD2C
:10453000FFF772FC2046403004214156491C00D14F
:10454000077105214156491C00D14771FFF770FCE6
:1045500004A9684600F044F80028204614D0FFF76C
:1045600033FB00F0C7F92046FFF706FB0028ADD06B
:10457000002D32D0FFF750FC606A002828D0206B55
:1045800007210068091A24E0FFF7F6FA002819D07D
:104590002068002807D1FFF73FFC606800F03CF975
:1045A0000546FFF745FC204624300499FFF7A2FC9E
:1045B0002046FFF709FB00F09DF9002886D1FFF7A0
:1045C00067FC83E72046FFF7FFFA00F093F97DE7E9
:1045D00000216068FFF7A0FC9FE7002091E7000042
:1045E000F8B50C46050012D0002C12D0FFF714FCD1
:1045F000114B5A696E682068911B471C0BD02F68BD
:104600009B6A9F420CD096420AD8012404E072B6FD
:10461000FEE772B6FEE70024FFF70AFC2046F8BD6D
:10462000884205D9401A20602846FFF755FCF2E77A
:1046300000202060E9E7000054000020FFB585B0AD
:10464000164690000F9FFFF7F7FA05001CD0542084
:10465000FFF7F2FA040014D0002051212563085519
:104660000E9900910390019702943246089B069997
:104670000598FFF71DFA2046FFF70CF9012009B055
:10468000F0BD2846FFF7E2FB0020C043F7E7F0B596
:1046900085B007460B9D0C9C0A98002D15D0002C68
:1046A00015D054262563022551263555002504AE24
:1046B00000900196039502943846FFF7F9F92046D9
:1046C000FFF7E8F8049805B0F0BD72B6FEE772B6E1
:1046D000FEE700000648C169002904D0806B00286D
:1046E00003D000207047012070470220704700006F
:1046F00054000020F8B52C4C0027A06B002808D0EF
:10470000206A401C2062606A002800D001273846D9
:10471000F8BD6669761C66610ED160680068002885
:1047200001D072B6FEE76068A1686160A060A06A0F
:10473000401CA062FFF72EFA206B86420AD3606805
:104740000068002810D06068C068C5686868864244
:104750000DD2206320681421C06A484313490858C9
:104760000128D0D90127CEE70020C043F1E7281D5A
:10477000FFF702FBA86A002803D028461830FFF78D
:10478000FBFAE86AA169884200D9A0611421484374
:1047900006494018291DFFF733FBE86A2168C96AFA
:1047A0008842CCD30127CAE7540000208C0800209F
:1047B00070B500210446002828D0154D2868844291
:1047C00001D072B6FEE7A06C002808D0401EA0649D
:1047D000636CE26A9A4219D0002802D016E072B6E1
:1047E000FEE7201DFFF7C8FA606C0721E062081A97
:1047F000A061E06AA969884200D9A86114214843F0
:1048000004494018211DFFF7FBFA0121084670BD3D
:10481000540000208C08002070B504460020002CB5
:104820002AD0194DE16A2A68D26A914225D2A0693C
:10483000002804DB28680721C06A081AA061E06A22
:104840001422124E504361698019814210D1201DFB
:10485000FFF792FA2868C06AE062A969884200D925
:10486000A861142148438019211DFFF7C9FA02E00D
:104870002868C06AE062012070BD616C2A68D26A53
:104880009142F8D370BD0000540000208C08002035
:1048900070B5C068C468002C0BD02046183006469E
:1048A000FFF76AFA114DA86B002804D03146104872
:1048B0000FE072B6FEE7201DFFF75EFAE06AA96915
:1048C000884200D9A861142148430949B4394018E5
:1048D000211DFFF795FAE06A2968C96A884202D962
:1048E0000120686270BD002070BD000054000020EF
:1048F00040090020F8B5284C0025A06B2E46002862
:1049000008D0FFF789FAA06B401EA063A06B0028B7
:1049100002D03DE072B6FEE72169204F00291DD18B
:1049200036E0F868C56828461830FFF725FA281DD4
:10493000FFF722FAE86AA169884200D9A061142130
:1049400048431649B4394018291DFFF759FAE86A57
:104950002168C96A884201D3012060623868002852
:10496000DFD1002D01D0FFF715F9256A002D09D000
:104970000127FFF7BFFE002800D067626D1EF8D147
:1049800000202062606A002802D00126FFF780FA2A
:10499000FFF74EFA3046F8BD5400002040090020D1
:1049A0000000000000000000000000000000000007
:1049B0000000000000100010001000100010001097
:1049C000000000100000000000280028002800005F
:1049D000000000000000000000000000002400248F
:1049E000007C00240048007C0048004800000000D3
:1049F00000380054005000380014005400540038AF
:104A0000001000000020005400580030002800541E
:104A1000001400080000000000100028002800100A
:104A2000003400480048003400000000001000106E
:104A30000010000000000000000000000000000066
:104A4000000800100020002000200020002000208E
:104A500000100008002000100008000800080008EE
:104A60000008000800100020001000380010002886
:104A70000000000000000000000000000000000036
:104A800000100010007C001000100000000000006A
:104A90000000000000000000000000000000001006
:104AA00000100010000000000000000000000038AE
:104AB00000000000000000000000000000000000F6
:104AC00000000000000000100000000000080008C6
:104AD0000010001000100010002000200000000056
:104AE00000380044004400540044004400440038AE
:104AF00000000000001000300050001000100010F6
:104B000000100010000000000038004400440004C1
:104B1000000800100020007C000000000038004465
:104B200000040018000400040044003800000000E5
:104B300000080018002800280048007C0008000831
:104B400000000000007C00400040007800040004E9
:104B500000440038000000000038004400400078A5
:104B6000004400440044003800000000007C0004C1
:104B700000080010001000200020002000000000AD
:104B80000038004400440038004400440044003829
:104B9000000000000038004400440044003C0004D1
:104BA0000044003800000000000000000010000079
:104BB00000000000000000100000000000000000E5
:104BC00000000010000000000000001000100010A5
:104BD00000000000000C003000400030000C00001D
:104BE00000000000000000000000007C0000007CCD
:104BF000000000000000000000000000006000183D
:104C000000040018006000000000000000380044AC
:104C10000004000800100010000000100000000058
:104C200000380044004C0054005C00400040003854
:104C30000000000000100028002800280028007C48
:104C40000044004400000000007800440044007864
:104C50000044004400440078000000000038004494
:104C600000400040004000400044003800000000C8
:104C700000700048004400440044004400480070B4
:104C800000000000007C00400040007C004000402C
:104C90000040007C00000000007C004000400078E4
:104CA0000040004000400040000000000038004488
:104CB00000400040005C0044004400380000000058
:104CC000004400440044007C00440044004400448C
:104CD000000000000038001000100010001000104C
:104CE000001000380000000000040004000400046C
:104CF00000040004004400380000000000440048A4
:104D000000500060005000480048004400000000CF
:104D10000040004000400040004000400040007C57
:104D2000000000000044006C006C0054004400448B
:104D3000004400440000000000440064006400548B
:104D40000054004C004C00440000000000380044B7
:104D500000440044004400440044003800000000C7
:104D600000780044004400440078004000400040C7
:104D700000000000003800440044004400440044A7
:104D8000005400380004000000780044004400444F
:104D9000007800480048004400000000003800444B
:104DA000004000300008000400440038000000000B
:104DB000007C001000100010001000100010001007
:104DC000000000000044004400440044004400444B
:104DD0000044003800000000004400440044002863
:104DE00000280028001000100000000000440044CB
:104DF000005400540054006C0028002800000000FB
:104E0000004400280028001000100028002800445A
:104E1000000000000044004400280028001000109A
:104E20000010001000000000007C000400080010CA
:104E3000001000200040007C00000000001800105E
:104E400000100010001000100010001000100018DA
:104E500000200020001000100010001000080008C2
:104E600000000000003000100010001000100010C2
:104E7000001000100010003000100028002800442E
:104E80000000000000000000000000000000000022
:104E9000000000000000000000000000000000FE14
:104EA00000200010000000000000000000000000D2
:104EB000000000000000000000380044003C0044F6
:104EC000004C003400000000004000400058006426
:104ED000004400440064005800000000000000008E
:104EE000003800440040004000440038000000004A
:104EF000000400040034004C00440044004C003422
:104F0000000000000000000000380044007C004069
:104F10000044003800000000000C0010007C00106D
:104F20000010001000100010000000000000000041
:104F30000034004C00440044004C0034000400786D
:104F40000040004000580064004400440044004415
:104F500000000000001000000070001000100010A1
:104F60000010001000000000001000000070001091
:104F70000010001000100010001000E00040004081
:104F8000004800500060005000480044000000004D
:104F90000070001000100010001000100010001031
:104FA000000000000000000000780054005400548D
:104FB000005400540000000000000000005800648D
:104FC00000440044004400440000000000000000D1
:104FD0000038004400440044004400380000000051
:104FE00000000000005800640044004400640058C1
:104FF00000400040000000000034004C0044004429
:10500000004C00340004000400000000005800645C
:105010000040004000400040000000000000000090
:105020000038004400300008004400380000000050
:105030000020002000780020002000200020001820
:105040000000000000000000004400440044004450
:10505000004C003400000000000000000044004448
:1050600000280028002800100000000000000000B8
:10507000005400540054006C002800280000000078
:105080000000000000440028001000100028004428
:105090000000000000000000004400440028002838
:1050A000001000100010006000000000007C0008EC
:1050B000001000200040007C0000000000180010DC
:1050C0000010001000200020001000100010001838
:1050D0000010001000100010001000100010001050
:1050E0000010001000300010001000100008000830
:1050F00000100010001000300000000000000074DC
:10510000004C000000000000000000000000000053
:10511000000000000000000000000000000000008F
:10512000000000000000000000000000000000007F
:105130000000000C000C000C000C000C000C000C1B
:10514000000C000C000C000C0000000C000C000017
:10515000000000000000001B001B001B001B001BC8
:10516000000000000000000000000000000000003F
:105170000000000000000000000080198019801964
:105180008019C07FC07F80190033C07FC07F00338B
:105190000033003300330000000000000000001E58
:1051A000003F807580650074003C001E000780058C
:1051B000806580658075003F001E000400040000CB
:1051C0000000007000D840D8C0D880D90073000615
:1051D000000C801BC036C066C046C00680030000BD
:1051E000000000000000001E003F003300330033C9
:1051F000001E000CC03CC066806380618063C03EBE
:10520000801C0000000000000000000C000C000CDE
:10521000000C000C00000000000000000000000076
:1052200000000000000000000000000080000001FD
:105230000003000600060004000C000C000C000C2B
:10524000000C000C000400060006000300018000B2
:10525000002000100018000C000C000400060006DE
:1052600000060006000600060004000C000C0018F2
:10527000001000200000000C002D003F001E003335
:10528000000000000000000000000000000000001E
:105290000000000000000000000000000000000C02
:1052A000000C000C000CC0FFC0FF000C000C000C38
:1052B000000C0000000000000000000000000000E2
:1052C00000000000000000000000000000000000DE
:1052D000000000000000000C000C000400040008A6
:1052E00000000000000000000000000000000000BE
:1052F0000000001E001E0000000000000000000072
:10530000000000000000000000000000000000009D
:105310000000000000000000000000000000000C81
:10532000000C000000000000000000030003000368
:105330000006000600060006000C000C000C000C25
:105340000018001800180000000000000000001EF7
:10535000003F0033806180618061806D806D80617D
:10536000806180610033003F001E000000000000EB
:1053700000000006000E001E003600260006000693
:1053800000060006000600060006000600060000F3
:10539000000000000000001E003F807380618061FB
:1053A000800100030006000C001800300060807FC0
:1053B000807F0000000000000000001C003E006331
:1053C00000630003000E000E000380018001806175
:1053D0008073003F001E0000000000000000000677
:1053E000000E000E001E001E00160036003600667D
:1053F000807F807F0006000600060000000000009D
:105400000000007F007F006000600060006E007F91
:1054100080638001800180618073003F001E000076
:10542000000000000000001E003F8033806100602B
:10543000006E007F80738061806180618033003FF7
:10544000001E0000000000000000807F807F8001BF
:105450000003000300060006000C000C000C00080E
:105460000018001800180000000000000000001ED6
:10547000003F8063806180610021001E003F8061E9
:10548000806180618061003F001E0000000000001C
:105490000000001E003F00738061806180618073A6
:1054A000803F801D800180610073003F001E00006E
:1054B0000000000000000000000000000000000CE0
:1054C000000C000000000000000000000000000CC4
:1054D000000C0000000000000000000000000000C0
:1054E00000000000000C000C0000000000000000A4
:1054F0000000000C000C0004000400080000000084
:105500000000000080008003000E003800600038BA
:10551000000E80038000000000000000000000007A
:1055200000000000000000000000807F807F00007D
:105530000000807F807F000000000000000000006D
:1055400000000000000000000000000000400070AB
:10555000001C000780010007001C007000400000D4
:1055600000000000000000000000001F803FC0712C
:10557000C060C000C00180030007000E000C000CDA
:105580000000000C000C0000000000000000001EE5
:10559000003F803180718063806F806D806D806F8F
:1055A000806700600032003E001C00000000000028
:1055B0000000000E000E001B001B001B001B8031B2
:1055C0008031803F803F8031C060C060C06000009B
:1055D000000000000000007C007E006300630063A8
:1055E0000063007E007E0063806180618063007FD5
:1055F000007E0000000000000000001E003F80311F
:105600008061006000600060006000600060806198
:105610008031003F001E0000000000000000007C00
:10562000007F006380638061806180618061806150
:10563000806100630063007E007C000000000000C9
:105640000000807F807F0060006000600060007F5D
:10565000007F0060006000600060807F807F00004D
:10566000000000000000807F807F0060006000601C
:105670000060007F007F00600060006000600060EC
:1056800000600000000000000000001E003F8031AC
:105690008061006000600060806380638061806181
:1056A0008031803F001E000000000000000080618B
:1056B00080618061806180618061807F807F8061A6
:1056C0008061806180618061806100000000000075
:1056D0000000003F003F000C000C000C000C000C10
:1056E000000C000C000C000C000C003F003F000000
:1056F0000000000000008001800180018001800125
:105700008001800180018001806180618073003FA1
:10571000001E0000000000000000C0608061006307
:1057200000660066006C0078007C0066006600631E
:1057300080618061C0600000000000000000006027
:105740000060006000600060006000600060006059
:10575000006000600060807F807F0000000000002B
:105760000000C071C071C07BC07AC06AC06AC06EE0
:10577000C064C060C060C060C060C060C060000045
:10578000000000000000807180718079807980794C
:10579000806D806D806D80658067806780678063C5
:1057A00080630000000000000000001E003F003386
:1057B00080618061806180618061806180618061E1
:1057C0000033003F001E0000000000000000007ECB
:1057D000007F80638061806180618063007F007EE4
:1057E00000600060006000600060000000000000D9
:1057F0000000001E003F0033806180618061806195
:1058000080618061806580670033803F401E0000BA
:10581000000000000000007E007F806380618061E6
:105820008063007F007E00660063006380618061AA
:10583000C0600000000000000000000E001F80316A
:10584000803100300038001E0007800380618061D5
:105850008031003F001E0000000000000000C0FF7B
:10586000C0FF000C000C000C000C000C000C000C25
:10587000000C000C000C000C000C000000000000EC
:1058800000008061806180618061806180618061F1
:1058900080618061806180618073003F001E000034
:1058A000000000000000C060C060C0608031803136
:1058B0008031001B001B001B001B000E000E000EA1
:1058C00000040000000000000000C0C0C0C0C0C054
:1058D000C0C0C0C0C0CC804C804C805E8052805222
:1058E0008073806180610000000000000000C0C083
:1058F000806080610033003B001E000C000C001E25
:10590000001F003B80718061C0C0000000000000EB
:105910000000C0C08061806100330033001E001EA3
:10592000000C000C000C000C000C000C000C000023
:10593000000000000000803F803F80010003000362
:105940000006000C000C0018001800300060807F7A
:10595000807F000000000000000F000F000C000C12
:10596000000C000C000C000C000C000C000C000CD7
:10597000000C000C000C000C000F000F00000018C1
:1059800000180018000C000C000C000C00060006AB
:1059900000060006000300030003000000000000F2
:1059A000001E001E00060006000600060006000697
:1059B00000060006000600060006000600060006B7
:1059C000001E001E0000000C000C001E0012003320
:1059D00000338061806100000000000000000000D2
:1059E00000000000000000000000000000000000B7
:1059F00000000000000000000000000000000000A7
:105A00000000000000000000E0FF0000000000387F
:105A10000018000C00000000000000000000000062
:105A20000000000000000000000000000000000076
:105A300000000000000000000000001F803F8061A7
:105A40008001801F803F80618063807FC0380000BC
:105A50000000000000000060006000600060006E58
:105A6000007F807380618061806180618073007FCE
:105A7000006E0000000000000000000000000000B8
:105A80000000001E003F8073806100600060806144
:105A90008073003F001E0000000000000000800135
:105AA000800180018001801D803F80738061806162
:105AB000806180618073803F801D000000000000D5
:105AC00000000000000000000000001E003F007306
:105AD0008061807F807F00608071003F001E000039
